{
  "contractName": "ChilliToken",
  "abi": [
    {
      "inputs": [
        {
          "internalType": "string",
          "name": "name_",
          "type": "string"
        },
        {
          "internalType": "string",
          "name": "symbol_",
          "type": "string"
        },
        {
          "internalType": "address",
          "name": "childChainManager",
          "type": "address"
        },
        {
          "internalType": "uint256",
          "name": "amount",
          "type": "uint256"
        }
      ],
      "stateMutability": "nonpayable",
      "type": "constructor"
    },
    {
      "anonymous": false,
      "inputs": [
        {
          "indexed": true,
          "internalType": "address",
          "name": "owner",
          "type": "address"
        },
        {
          "indexed": true,
          "internalType": "address",
          "name": "spender",
          "type": "address"
        },
        {
          "indexed": false,
          "internalType": "uint256",
          "name": "value",
          "type": "uint256"
        }
      ],
      "name": "Approval",
      "type": "event"
    },
    {
      "anonymous": false,
      "inputs": [
        {
          "indexed": false,
          "internalType": "address",
          "name": "userAddress",
          "type": "address"
        },
        {
          "indexed": false,
          "internalType": "address payable",
          "name": "relayerAddress",
          "type": "address"
        },
        {
          "indexed": false,
          "internalType": "bytes",
          "name": "functionSignature",
          "type": "bytes"
        }
      ],
      "name": "MetaTransactionExecuted",
      "type": "event"
    },
    {
      "anonymous": false,
      "inputs": [
        {
          "indexed": false,
          "internalType": "address",
          "name": "account",
          "type": "address"
        }
      ],
      "name": "Paused",
      "type": "event"
    },
    {
      "anonymous": false,
      "inputs": [
        {
          "indexed": true,
          "internalType": "bytes32",
          "name": "role",
          "type": "bytes32"
        },
        {
          "indexed": true,
          "internalType": "bytes32",
          "name": "previousAdminRole",
          "type": "bytes32"
        },
        {
          "indexed": true,
          "internalType": "bytes32",
          "name": "newAdminRole",
          "type": "bytes32"
        }
      ],
      "name": "RoleAdminChanged",
      "type": "event"
    },
    {
      "anonymous": false,
      "inputs": [
        {
          "indexed": true,
          "internalType": "bytes32",
          "name": "role",
          "type": "bytes32"
        },
        {
          "indexed": true,
          "internalType": "address",
          "name": "account",
          "type": "address"
        },
        {
          "indexed": true,
          "internalType": "address",
          "name": "sender",
          "type": "address"
        }
      ],
      "name": "RoleGranted",
      "type": "event"
    },
    {
      "anonymous": false,
      "inputs": [
        {
          "indexed": true,
          "internalType": "bytes32",
          "name": "role",
          "type": "bytes32"
        },
        {
          "indexed": true,
          "internalType": "address",
          "name": "account",
          "type": "address"
        },
        {
          "indexed": true,
          "internalType": "address",
          "name": "sender",
          "type": "address"
        }
      ],
      "name": "RoleRevoked",
      "type": "event"
    },
    {
      "anonymous": false,
      "inputs": [
        {
          "indexed": true,
          "internalType": "address",
          "name": "from",
          "type": "address"
        },
        {
          "indexed": true,
          "internalType": "address",
          "name": "to",
          "type": "address"
        },
        {
          "indexed": false,
          "internalType": "uint256",
          "name": "value",
          "type": "uint256"
        }
      ],
      "name": "Transfer",
      "type": "event"
    },
    {
      "anonymous": false,
      "inputs": [
        {
          "indexed": false,
          "internalType": "address",
          "name": "account",
          "type": "address"
        }
      ],
      "name": "Unpaused",
      "type": "event"
    },
    {
      "inputs": [],
      "name": "DEFAULT_ADMIN_ROLE",
      "outputs": [
        {
          "internalType": "bytes32",
          "name": "",
          "type": "bytes32"
        }
      ],
      "stateMutability": "view",
      "type": "function"
    },
    {
      "inputs": [],
      "name": "DEPOSITOR_ROLE",
      "outputs": [
        {
          "internalType": "bytes32",
          "name": "",
          "type": "bytes32"
        }
      ],
      "stateMutability": "view",
      "type": "function"
    },
    {
      "inputs": [],
      "name": "ERC712_VERSION",
      "outputs": [
        {
          "internalType": "string",
          "name": "",
          "type": "string"
        }
      ],
      "stateMutability": "view",
      "type": "function"
    },
    {
      "inputs": [],
      "name": "PERMIT_TYPEHASH",
      "outputs": [
        {
          "internalType": "bytes32",
          "name": "",
          "type": "bytes32"
        }
      ],
      "stateMutability": "view",
      "type": "function"
    },
    {
      "inputs": [
        {
          "internalType": "address",
          "name": "owner",
          "type": "address"
        },
        {
          "internalType": "address",
          "name": "spender",
          "type": "address"
        }
      ],
      "name": "allowance",
      "outputs": [
        {
          "internalType": "uint256",
          "name": "",
          "type": "uint256"
        }
      ],
      "stateMutability": "view",
      "type": "function"
    },
    {
      "inputs": [
        {
          "internalType": "address",
          "name": "spender",
          "type": "address"
        },
        {
          "internalType": "uint256",
          "name": "amount",
          "type": "uint256"
        }
      ],
      "name": "approve",
      "outputs": [
        {
          "internalType": "bool",
          "name": "",
          "type": "bool"
        }
      ],
      "stateMutability": "nonpayable",
      "type": "function"
    },
    {
      "inputs": [
        {
          "internalType": "address",
          "name": "account",
          "type": "address"
        }
      ],
      "name": "balanceOf",
      "outputs": [
        {
          "internalType": "uint256",
          "name": "",
          "type": "uint256"
        }
      ],
      "stateMutability": "view",
      "type": "function"
    },
    {
      "inputs": [],
      "name": "decimals",
      "outputs": [
        {
          "internalType": "uint8",
          "name": "",
          "type": "uint8"
        }
      ],
      "stateMutability": "view",
      "type": "function"
    },
    {
      "inputs": [
        {
          "internalType": "address",
          "name": "spender",
          "type": "address"
        },
        {
          "internalType": "uint256",
          "name": "subtractedValue",
          "type": "uint256"
        }
      ],
      "name": "decreaseAllowance",
      "outputs": [
        {
          "internalType": "bool",
          "name": "",
          "type": "bool"
        }
      ],
      "stateMutability": "nonpayable",
      "type": "function"
    },
    {
      "inputs": [
        {
          "internalType": "address",
          "name": "userAddress",
          "type": "address"
        },
        {
          "internalType": "bytes",
          "name": "functionSignature",
          "type": "bytes"
        },
        {
          "internalType": "bytes32",
          "name": "sigR",
          "type": "bytes32"
        },
        {
          "internalType": "bytes32",
          "name": "sigS",
          "type": "bytes32"
        },
        {
          "internalType": "uint8",
          "name": "sigV",
          "type": "uint8"
        }
      ],
      "name": "executeMetaTransaction",
      "outputs": [
        {
          "internalType": "bytes",
          "name": "",
          "type": "bytes"
        }
      ],
      "stateMutability": "payable",
      "type": "function"
    },
    {
      "inputs": [],
      "name": "getChainId",
      "outputs": [
        {
          "internalType": "uint256",
          "name": "",
          "type": "uint256"
        }
      ],
      "stateMutability": "pure",
      "type": "function"
    },
    {
      "inputs": [],
      "name": "getDomainSeperator",
      "outputs": [
        {
          "internalType": "bytes32",
          "name": "",
          "type": "bytes32"
        }
      ],
      "stateMutability": "view",
      "type": "function"
    },
    {
      "inputs": [
        {
          "internalType": "address",
          "name": "user",
          "type": "address"
        }
      ],
      "name": "getNonce",
      "outputs": [
        {
          "internalType": "uint256",
          "name": "nonce",
          "type": "uint256"
        }
      ],
      "stateMutability": "view",
      "type": "function"
    },
    {
      "inputs": [
        {
          "internalType": "bytes32",
          "name": "role",
          "type": "bytes32"
        }
      ],
      "name": "getRoleAdmin",
      "outputs": [
        {
          "internalType": "bytes32",
          "name": "",
          "type": "bytes32"
        }
      ],
      "stateMutability": "view",
      "type": "function"
    },
    {
      "inputs": [
        {
          "internalType": "bytes32",
          "name": "role",
          "type": "bytes32"
        },
        {
          "internalType": "uint256",
          "name": "index",
          "type": "uint256"
        }
      ],
      "name": "getRoleMember",
      "outputs": [
        {
          "internalType": "address",
          "name": "",
          "type": "address"
        }
      ],
      "stateMutability": "view",
      "type": "function"
    },
    {
      "inputs": [
        {
          "internalType": "bytes32",
          "name": "role",
          "type": "bytes32"
        }
      ],
      "name": "getRoleMemberCount",
      "outputs": [
        {
          "internalType": "uint256",
          "name": "",
          "type": "uint256"
        }
      ],
      "stateMutability": "view",
      "type": "function"
    },
    {
      "inputs": [
        {
          "internalType": "bytes32",
          "name": "role",
          "type": "bytes32"
        },
        {
          "internalType": "address",
          "name": "account",
          "type": "address"
        }
      ],
      "name": "grantRole",
      "outputs": [],
      "stateMutability": "nonpayable",
      "type": "function"
    },
    {
      "inputs": [
        {
          "internalType": "bytes32",
          "name": "role",
          "type": "bytes32"
        },
        {
          "internalType": "address",
          "name": "account",
          "type": "address"
        }
      ],
      "name": "hasRole",
      "outputs": [
        {
          "internalType": "bool",
          "name": "",
          "type": "bool"
        }
      ],
      "stateMutability": "view",
      "type": "function"
    },
    {
      "inputs": [
        {
          "internalType": "address",
          "name": "spender",
          "type": "address"
        },
        {
          "internalType": "uint256",
          "name": "addedValue",
          "type": "uint256"
        }
      ],
      "name": "increaseAllowance",
      "outputs": [
        {
          "internalType": "bool",
          "name": "",
          "type": "bool"
        }
      ],
      "stateMutability": "nonpayable",
      "type": "function"
    },
    {
      "inputs": [],
      "name": "name",
      "outputs": [
        {
          "internalType": "string",
          "name": "",
          "type": "string"
        }
      ],
      "stateMutability": "view",
      "type": "function"
    },
    {
      "inputs": [],
      "name": "paused",
      "outputs": [
        {
          "internalType": "bool",
          "name": "",
          "type": "bool"
        }
      ],
      "stateMutability": "view",
      "type": "function"
    },
    {
      "inputs": [
        {
          "internalType": "bytes32",
          "name": "role",
          "type": "bytes32"
        },
        {
          "internalType": "address",
          "name": "account",
          "type": "address"
        }
      ],
      "name": "renounceRole",
      "outputs": [],
      "stateMutability": "nonpayable",
      "type": "function"
    },
    {
      "inputs": [
        {
          "internalType": "bytes32",
          "name": "role",
          "type": "bytes32"
        },
        {
          "internalType": "address",
          "name": "account",
          "type": "address"
        }
      ],
      "name": "revokeRole",
      "outputs": [],
      "stateMutability": "nonpayable",
      "type": "function"
    },
    {
      "inputs": [],
      "name": "symbol",
      "outputs": [
        {
          "internalType": "string",
          "name": "",
          "type": "string"
        }
      ],
      "stateMutability": "view",
      "type": "function"
    },
    {
      "inputs": [],
      "name": "totalSupply",
      "outputs": [
        {
          "internalType": "uint256",
          "name": "",
          "type": "uint256"
        }
      ],
      "stateMutability": "view",
      "type": "function"
    },
    {
      "inputs": [
        {
          "internalType": "address",
          "name": "recipient",
          "type": "address"
        },
        {
          "internalType": "uint256",
          "name": "amount",
          "type": "uint256"
        }
      ],
      "name": "transfer",
      "outputs": [
        {
          "internalType": "bool",
          "name": "",
          "type": "bool"
        }
      ],
      "stateMutability": "nonpayable",
      "type": "function"
    },
    {
      "inputs": [
        {
          "internalType": "address",
          "name": "sender",
          "type": "address"
        },
        {
          "internalType": "address",
          "name": "recipient",
          "type": "address"
        },
        {
          "internalType": "uint256",
          "name": "amount",
          "type": "uint256"
        }
      ],
      "name": "transferFrom",
      "outputs": [
        {
          "internalType": "bool",
          "name": "",
          "type": "bool"
        }
      ],
      "stateMutability": "nonpayable",
      "type": "function"
    },
    {
      "inputs": [
        {
          "internalType": "address",
          "name": "owner",
          "type": "address"
        },
        {
          "internalType": "address",
          "name": "spender",
          "type": "address"
        },
        {
          "internalType": "uint256",
          "name": "amount",
          "type": "uint256"
        },
        {
          "internalType": "uint256",
          "name": "deadline",
          "type": "uint256"
        },
        {
          "internalType": "uint8",
          "name": "v",
          "type": "uint8"
        },
        {
          "internalType": "bytes32",
          "name": "r",
          "type": "bytes32"
        },
        {
          "internalType": "bytes32",
          "name": "s",
          "type": "bytes32"
        }
      ],
      "name": "permit",
      "outputs": [],
      "stateMutability": "nonpayable",
      "type": "function"
    },
    {
      "inputs": [
        {
          "internalType": "address",
          "name": "user",
          "type": "address"
        },
        {
          "internalType": "bytes",
          "name": "depositData",
          "type": "bytes"
        }
      ],
      "name": "deposit",
      "outputs": [],
      "stateMutability": "nonpayable",
      "type": "function"
    },
    {
      "inputs": [
        {
          "internalType": "address",
          "name": "user",
          "type": "address"
        },
        {
          "internalType": "uint256",
          "name": "amount",
          "type": "uint256"
        }
      ],
      "name": "withdraw",
      "outputs": [],
      "stateMutability": "nonpayable",
      "type": "function"
    },
    {
      "inputs": [],
      "name": "pause",
      "outputs": [],
      "stateMutability": "nonpayable",
      "type": "function"
    },
    {
      "inputs": [],
      "name": "unpause",
      "outputs": [],
      "stateMutability": "nonpayable",
      "type": "function"
    },
    {
      "inputs": [
        {
          "internalType": "address",
          "name": "user",
          "type": "address"
        },
        {
          "internalType": "uint256",
          "name": "amount",
          "type": "uint256"
        }
      ],
      "name": "mint",
      "outputs": [],
      "stateMutability": "nonpayable",
      "type": "function"
    }
  ],
  "bytecode": "0x60806040523480156200001157600080fd5b5060405162002bda38038062002bda833981810160405260808110156200003757600080fd5b81019080805160405193929190846401000000008211156200005857600080fd5b9083019060208201858111156200006e57600080fd5b82516401000000008111828201881017156200008957600080fd5b82525081516020918201929091019080838360005b83811015620000b85781810151838201526020016200009e565b50505050905090810190601f168015620000e65780820380516001836020036101000a031916815260200191505b50604052602001805160405193929190846401000000008211156200010a57600080fd5b9083019060208201858111156200012057600080fd5b82516401000000008111828201881017156200013b57600080fd5b82525081516020918201929091019080838360005b838110156200016a57818101518382015260200162000150565b50505050905090810190601f168015620001985780820380516001836020036101000a031916815260200191505b5060409081526020828101519290910151865192945092508591829182918791620001c9916003918501906200067a565b508051620001df9060049060208401906200067a565b50506005805460ff1916601217905550620001fa8162000267565b50506009805460ff191690556200021c6000620002166200032c565b6200038c565b620002487f8f4f2da22e8ac8f11e15f9fc141cddbb5deea8800186560abb6e68c5496619a9836200038c565b6200025d620002566200032c565b826200039c565b5050505062000726565b6040518060800160405280604f815260200162002b8b604f913980516020918201208251838301206040805180820190915260018152603160f81b930192909252907fc89efdaa54c0f20c7adf612882df0950f5a951637e0307cdcb4c672f298b8bc630620002d5620004ab565b60001b60405160200180868152602001858152602001848152602001836001600160a01b03168152602001828152602001955050505050506040516020818303038152906040528051906020012060078190555050565b600033301415620003865760606000368080601f0160208091040260200160405190810160405280939291908181526020018383808284376000920191909152505050503601516001600160a01b03169150620003899050565b50335b90565b620003988282620004af565b5050565b6001600160a01b038216620003f8576040805162461bcd60e51b815260206004820152601f60248201527f45524332303a206d696e7420746f20746865207a65726f206164647265737300604482015290519081900360640190fd5b62000406600083836200052a565b62000422816002546200058f60201b620015021790919060201c565b6002556001600160a01b0382166000908152602081815260409091205462000455918390620015026200058f821b17901c565b6001600160a01b0383166000818152602081815260408083209490945583518581529351929391927fddf252ad1be2c89b69c2b068fc378daa952ba7f163c4a11628f55a4df523b3ef9281900390910190a35050565b4690565b6000828152600660209081526040909120620004d69183906200155c620005f3821b17901c565b156200039857620004e66200032c565b6001600160a01b0316816001600160a01b0316837f2f8788117e7eff1d82e926ec794901d17c78024a50270940304540a733656f0d60405160405180910390a45050565b620005428383836200058a60201b62000fb91760201c565b6200054c6200060a565b156200058a5760405162461bcd60e51b815260040180806020018281038252602781526020018062002b646027913960400191505060405180910390fd5b505050565b600082820183811015620005ea576040805162461bcd60e51b815260206004820152601b60248201527f536166654d6174683a206164646974696f6e206f766572666c6f770000000000604482015290519081900360640190fd5b90505b92915050565b6000620005ea836001600160a01b03841662000613565b60095460ff1690565b600062000621838362000662565b6200065957508154600181810184556000848152602080822090930184905584548482528286019093526040902091909155620005ed565b506000620005ed565b60009081526001919091016020526040902054151590565b828054600181600116156101000203166002900490600052602060002090601f016020900481019282620006b25760008555620006fd565b82601f10620006cd57805160ff1916838001178555620006fd565b82800160010185558215620006fd579182015b82811115620006fd578251825591602001919060010190620006e0565b506200070b9291506200070f565b5090565b5b808211156200070b576000815560010162000710565b61242e80620007366000396000f3fe6080604052600436106101ee5760003560e01c806340c10f191161010d578063a3b0b5a3116100a0578063cf2c52cb1161006f578063cf2c52cb1461078c578063d505accf14610819578063d547741f14610877578063dd62ed3e146108b0578063f3fef3a3146108eb576101ee565b8063a3b0b5a3146106db578063a457c2d7146106f0578063a9059cbb14610729578063ca15c87314610762576101ee565b80639010d07c116100dc5780639010d07c1461062c57806391d148541461067857806395d89b41146106b1578063a217fddf146106c6576101ee565b806340c10f19146105965780635c975abb146105cf57806370a08231146105e45780638456cb5914610617576101ee565b80632d0335ab116101855780633408e470116101545780633408e470146104fa57806336568abe1461050f57806339509351146105485780633f4ba83a14610581576101ee565b80632d0335ab1461044c5780632f2ff15d1461047f57806330adf81f146104ba578063313ce567146104cf576101ee565b806318160ddd116101c157806318160ddd146103a357806320379ee5146103ca57806323b872dd146103df578063248a9ca314610422576101ee565b806306fdde03146101f3578063095ea7b31461027d5780630c53c51c146102ca5780630f7e59701461038e575b600080fd5b3480156101ff57600080fd5b50610208610924565b6040805160208082528351818301528351919283929083019185019080838360005b8381101561024257818101518382015260200161022a565b50505050905090810190601f16801561026f5780820380516001836020036101000a031916815260200191505b509250505060405180910390f35b34801561028957600080fd5b506102b6600480360360408110156102a057600080fd5b506001600160a01b0381351690602001356109bb565b604080519115158252519081900360200190f35b610208600480360360a08110156102e057600080fd5b6001600160a01b03823516919081019060408101602082013564010000000081111561030b57600080fd5b82018360208201111561031d57600080fd5b8035906020019184600183028401116401000000008311171561033f57600080fd5b91908080601f016020809104026020016040519081016040528093929190818152602001838380828437600092019190915250929550508235935050506020810135906040013560ff166109d9565b34801561039a57600080fd5b50610208610ce6565b3480156103af57600080fd5b506103b8610d03565b60408051918252519081900360200190f35b3480156103d657600080fd5b506103b8610d09565b3480156103eb57600080fd5b506102b66004803603606081101561040257600080fd5b506001600160a01b03813581169160208101359091169060400135610d0f565b34801561042e57600080fd5b506103b86004803603602081101561044557600080fd5b5035610d96565b34801561045857600080fd5b506103b86004803603602081101561046f57600080fd5b50356001600160a01b0316610dab565b34801561048b57600080fd5b506104b8600480360360408110156104a257600080fd5b50803590602001356001600160a01b0316610dc6565b005b3480156104c657600080fd5b506103b8610e32565b3480156104db57600080fd5b506104e4610e56565b6040805160ff9092168252519081900360200190f35b34801561050657600080fd5b506103b8610e5f565b34801561051b57600080fd5b506104b86004803603604081101561053257600080fd5b50803590602001356001600160a01b0316610e63565b34801561055457600080fd5b506102b66004803603604081101561056b57600080fd5b506001600160a01b038135169060200135610ec4565b34801561058d57600080fd5b506104b8610f12565b3480156105a257600080fd5b506104b8600480360360408110156105b957600080fd5b506001600160a01b038135169060200135610f66565b3480156105db57600080fd5b506102b6610fbe565b3480156105f057600080fd5b506103b86004803603602081101561060757600080fd5b50356001600160a01b0316610fc7565b34801561062357600080fd5b506104b8610fe2565b34801561063857600080fd5b5061065c6004803603604081101561064f57600080fd5b5080359060200135611033565b604080516001600160a01b039092168252519081900360200190f35b34801561068457600080fd5b506102b66004803603604081101561069b57600080fd5b50803590602001356001600160a01b0316611052565b3480156106bd57600080fd5b5061020861106a565b3480156106d257600080fd5b506103b86110cb565b3480156106e757600080fd5b506103b86110d0565b3480156106fc57600080fd5b506102b66004803603604081101561071357600080fd5b506001600160a01b0381351690602001356110f4565b34801561073557600080fd5b506102b66004803603604081101561074c57600080fd5b506001600160a01b03813516906020013561115c565b34801561076e57600080fd5b506103b86004803603602081101561078557600080fd5b5035611170565b34801561079857600080fd5b506104b8600480360360408110156107af57600080fd5b6001600160a01b0382351691908101906040810160208201356401000000008111156107da57600080fd5b8201836020820111156107ec57600080fd5b8035906020019184600183028401116401000000008311171561080e57600080fd5b509092509050611187565b34801561082557600080fd5b506104b8600480360360e081101561083c57600080fd5b506001600160a01b03813581169160208101359091169060408101359060608101359060ff6080820135169060a08101359060c00135611216565b34801561088357600080fd5b506104b86004803603604081101561089a57600080fd5b50803590602001356001600160a01b031661142b565b3480156108bc57600080fd5b506103b8600480360360408110156108d357600080fd5b506001600160a01b0381358116916020013516611484565b3480156108f757600080fd5b506104b86004803603604081101561090e57600080fd5b506001600160a01b0381351690602001356114af565b60038054604080516020601f60026000196101006001881615020190951694909404938401819004810282018101909252828152606093909290918301828280156109b05780601f10610985576101008083540402835291602001916109b0565b820191906000526020600020905b81548152906001019060200180831161099357829003601f168201915b505050505090505b90565b60006109cf6109c8611571565b84846115ce565b5060015b92915050565b60606109e3612094565b50604080516060810182526001600160a01b03881660008181526008602090815290849020548352820152908101869052610a2187828787876116ba565b610a5c5760405162461bcd60e51b815260040180806020018281038252602181526020018061231a6021913960400191505060405180910390fd5b6001600160a01b038716600090815260086020526040902054610a80906001611502565b60086000896001600160a01b03166001600160a01b03168152602001908152602001600020819055507f5845892132946850460bff5a0083f71031bc5bf9aadcd40f1de79423eac9b10b87338860405180846001600160a01b03168152602001836001600160a01b0316815260200180602001828103825283818151815260200191508051906020019080838360005b83811015610b28578181015183820152602001610b10565b50505050905090810190601f168015610b555780820380516001836020036101000a031916815260200191505b5094505050505060405180910390a160006060306001600160a01b0316888a6040516020018083805190602001908083835b60208310610ba65780518252601f199092019160209182019101610b87565b6001836020036101000a038019825116818451168082178552505050505050905001826001600160a01b031660601b8152601401925050506040516020818303038152906040526040518082805190602001908083835b60208310610c1c5780518252601f199092019160209182019101610bfd565b6001836020036101000a0380198251168184511680821785525050505050509050019150506000604051808303816000865af19150503d8060008114610c7e576040519150601f19603f3d011682016040523d82523d6000602084013e610c83565b606091505b509150915081610cda576040805162461bcd60e51b815260206004820152601c60248201527f46756e6374696f6e2063616c6c206e6f74207375636365737366756c00000000604482015290519081900360640190fd5b98975050505050505050565b604051806040016040528060018152602001603160f81b81525081565b60025490565b60075490565b6000610d1c848484611794565b610d8c84610d28611571565b610d87856040518060600160405280602881526020016122f2602891396001600160a01b038a16600090815260016020526040812090610d66611571565b6001600160a01b0316815260208101919091526040016000205491906118ef565b6115ce565b5060019392505050565b60009081526006602052604090206002015490565b6001600160a01b031660009081526008602052604090205490565b600082815260066020526040902060020154610de990610de4611571565b611052565b610e245760405162461bcd60e51b815260040180806020018281038252602f815260200180612125602f913960400191505060405180910390fd5b610e2e8282611986565b5050565b7f6e71edae12b1b97f4d1f60370fef10105fa2faae0126114a169c64845d6126c981565b60055460ff1690565b4690565b610e6b611571565b6001600160a01b0316816001600160a01b031614610eba5760405162461bcd60e51b815260040180806020018281038252602f8152602001806123ca602f913960400191505060405180910390fd5b610e2e82826119ef565b60006109cf610ed1611571565b84610d878560016000610ee2611571565b6001600160a01b03908116825260208083019390935260409182016000908120918c168152925290205490611502565b6000610f2081610de4611571565b610f5b5760405162461bcd60e51b815260040180806020018281038252602a81526020018061224d602a913960400191505060405180910390fd5b610f63611a58565b50565b6000610f7481610de4611571565b610faf5760405162461bcd60e51b815260040180806020018281038252602a81526020018061224d602a913960400191505060405180910390fd5b610fb98383611af6565b505050565b60095460ff1690565b6001600160a01b031660009081526020819052604090205490565b6000610ff081610de4611571565b61102b5760405162461bcd60e51b815260040180806020018281038252602a81526020018061224d602a913960400191505060405180910390fd5b610f63611be6565b600082815260066020526040812061104b9083611c67565b9392505050565b600082815260066020526040812061104b9083611c73565b60048054604080516020601f60026000196101006001881615020190951694909404938401819004810282018101909252828152606093909290918301828280156109b05780601f10610985576101008083540402835291602001916109b0565b600081565b7f8f4f2da22e8ac8f11e15f9fc141cddbb5deea8800186560abb6e68c5496619a981565b60006109cf611101611571565b84610d87856040518060600160405280602581526020016123a5602591396001600061112b611571565b6001600160a01b03908116825260208083019390935260409182016000908120918d168152925290205491906118ef565b60006109cf611169611571565b8484611794565b60008181526006602052604081206109d390611c88565b7f8f4f2da22e8ac8f11e15f9fc141cddbb5deea8800186560abb6e68c5496619a96111b481610de4611571565b6111ef5760405162461bcd60e51b815260040180806020018281038252602a81526020018061224d602a913960400191505060405180910390fd5b60008383602081101561120157600080fd5b5035905061120f8582611af6565b5050505050565b6001600160a01b0380881660008181526008602090815260408083208054600180820190925582517f6e71edae12b1b97f4d1f60370fef10105fa2faae0126114a169c64845d6126c98186015280840196909652958c166060860152608085018b905260a085019590955260c08085018a90528151808603909101815260e08501825280519083012060075461190160f01b61010087015261010286015261012280860182905282518087039091018152610142860180845281519185019190912090859052610162860180845281905260ff8a166101828701526101a286018990526101c2860188905291519095919491926101e2808401939192601f1981019281900390910190855afa158015611333573d6000803e3d6000fd5b5050604051601f1901519150506001600160a01b0381166113855760405162461bcd60e51b81526004018080602001828103825260258152602001806121c36025913960400191505060405180910390fd5b896001600160a01b0316816001600160a01b0316146113d55760405162461bcd60e51b81526004018080602001828103825260218152602001806120bf6021913960400191505060405180910390fd5b864211156114145760405162461bcd60e51b815260040180806020018281038252602681526020018061219d6026913960400191505060405180910390fd5b61141f8a8a8a6115ce565b50505050505050505050565b60008281526006602052604090206002015461144990610de4611571565b610eba5760405162461bcd60e51b815260040180806020018281038252603081526020018061229d6030913960400191505060405180910390fd5b6001600160a01b03918216600090815260016020908152604080832093909416825291909152205490565b60006114bd81610de4611571565b6114f85760405162461bcd60e51b815260040180806020018281038252602a81526020018061224d602a913960400191505060405180910390fd5b610fb98383611c93565b60008282018381101561104b576040805162461bcd60e51b815260206004820152601b60248201527f536166654d6174683a206164646974696f6e206f766572666c6f770000000000604482015290519081900360640190fd5b600061104b836001600160a01b038416611d8f565b6000333014156115c95760606000368080601f0160208091040260200160405190810160405280939291908181526020018383808284376000920191909152505050503601516001600160a01b031691506109b89050565b503390565b6001600160a01b0383166116135760405162461bcd60e51b81526004018080602001828103825260248152602001806123816024913960400191505060405180910390fd5b6001600160a01b0382166116585760405162461bcd60e51b815260040180806020018281038252602281526020018061222b6022913960400191505060405180910390fd5b6001600160a01b03808416600081815260016020908152604080832094871680845294825291829020859055815185815291517f8c5be1e5ebec7d5bd14f71427d1e84f3dd0314c0f7b2291e5b200ac8c7c3b9259281900390910190a3505050565b60006001600160a01b0386166117015760405162461bcd60e51b81526004018080602001828103825260258152602001806122cd6025913960400191505060405180910390fd5b600161171461170f87611dd9565b611e5c565b83868660405160008152602001604052604051808581526020018460ff1681526020018381526020018281526020019450505050506020604051602081039080840390855afa15801561176b573d6000803e3d6000fd5b505050602060405103516001600160a01b0316866001600160a01b031614905095945050505050565b6001600160a01b0383166117d95760405162461bcd60e51b815260040180806020018281038252602581526020018061235c6025913960400191505060405180910390fd5b6001600160a01b03821661181e5760405162461bcd60e51b81526004018080602001828103825260238152602001806121026023913960400191505060405180910390fd5b611829838383611ea8565b61186681604051806060016040528060268152602001612277602691396001600160a01b03861660009081526020819052604090205491906118ef565b6001600160a01b0380851660009081526020819052604080822093909355908416815220546118959082611502565b6001600160a01b038084166000818152602081815260409182902094909455805185815290519193928716927fddf252ad1be2c89b69c2b068fc378daa952ba7f163c4a11628f55a4df523b3ef92918290030190a3505050565b6000818484111561197e5760405162461bcd60e51b81526004018080602001828103825283818151815260200191508051906020019080838360005b8381101561194357818101518382015260200161192b565b50505050905090810190601f1680156119705780820380516001836020036101000a031916815260200191505b509250505060405180910390fd5b505050900390565b600082815260066020526040902061199e908261155c565b15610e2e576119ab611571565b6001600160a01b0316816001600160a01b0316837f2f8788117e7eff1d82e926ec794901d17c78024a50270940304540a733656f0d60405160405180910390a45050565b6000828152600660205260409020611a079082611ef7565b15610e2e57611a14611571565b6001600160a01b0316816001600160a01b0316837ff6391f5c32d9c69d2a47ea670b442974b53935d1edc7fd64eb21e047a839171b60405160405180910390a45050565b60095460ff16611aa6576040805162461bcd60e51b815260206004820152601460248201527314185d5cd8589b194e881b9bdd081c185d5cd95960621b604482015290519081900360640190fd5b6009805460ff191690557f5db9ee0a495bf2e6ff9c91a7834c1ba4fdd244a5e8aa4e537bd38aeae4b073aa611ad9611571565b604080516001600160a01b039092168252519081900360200190a1565b6001600160a01b038216611b51576040805162461bcd60e51b815260206004820152601f60248201527f45524332303a206d696e7420746f20746865207a65726f206164647265737300604482015290519081900360640190fd5b611b5d60008383611ea8565b600254611b6a9082611502565b6002556001600160a01b038216600090815260208190526040902054611b909082611502565b6001600160a01b0383166000818152602081815260408083209490945583518581529351929391927fddf252ad1be2c89b69c2b068fc378daa952ba7f163c4a11628f55a4df523b3ef9281900390910190a35050565b60095460ff1615611c31576040805162461bcd60e51b815260206004820152601060248201526f14185d5cd8589b194e881c185d5cd95960821b604482015290519081900360640190fd5b6009805460ff191660011790557f62e78cea01bee320cd4e420270b5ea74000d11b0c9f74754ebdbfc544b05a258611ad9611571565b600061104b8383611f0c565b600061104b836001600160a01b038416611f70565b60006109d382611f88565b6001600160a01b038216611cd85760405162461bcd60e51b815260040180806020018281038252602181526020018061233b6021913960400191505060405180910390fd5b611ce482600083611ea8565b611d2181604051806060016040528060228152602001612154602291396001600160a01b03851660009081526020819052604090205491906118ef565b6001600160a01b038316600090815260208190526040902055600254611d479082611f8c565b6002556040805182815290516000916001600160a01b038516917fddf252ad1be2c89b69c2b068fc378daa952ba7f163c4a11628f55a4df523b3ef9181900360200190a35050565b6000611d9b8383611f70565b611dd1575081546001818101845560008481526020808220909301849055845484825282860190935260409020919091556109d3565b5060006109d3565b60006040518060800160405280604381526020016121e860439139805190602001208260000151836020015184604001518051906020012060405160200180858152602001848152602001836001600160a01b03168152602001828152602001945050505050604051602081830303815290604052805190602001209050919050565b6000611e66610d09565b82604051602001808061190160f01b81525060020183815260200182815260200192505050604051602081830303815290604052805190602001209050919050565b611eb3838383610fb9565b611ebb610fbe565b15610fb95760405162461bcd60e51b81526004018080602001828103825260278152602001806121766027913960400191505060405180910390fd5b600061104b836001600160a01b038416611fce565b81546000908210611f4e5760405162461bcd60e51b81526004018080602001828103825260228152602001806120e06022913960400191505060405180910390fd5b826000018281548110611f5d57fe5b9060005260206000200154905092915050565b60009081526001919091016020526040902054151590565b5490565b600061104b83836040518060400160405280601e81526020017f536166654d6174683a207375627472616374696f6e206f766572666c6f7700008152506118ef565b6000818152600183016020526040812054801561208a578354600019808301919081019060009087908390811061200157fe5b906000526020600020015490508087600001848154811061201e57fe5b60009182526020808320909101929092558281526001898101909252604090209084019055865487908061204e57fe5b600190038181906000526020600020016000905590558660010160008781526020019081526020016000206000905560019450505050506109d3565b60009150506109d3565b60405180606001604052806000815260200160006001600160a01b0316815260200160608152509056fe4368696c6c69544f6b656e3a3a7065726d69743a20756e617574686f72697a6564456e756d657261626c655365743a20696e646578206f7574206f6620626f756e647345524332303a207472616e7366657220746f20746865207a65726f2061646472657373416363657373436f6e74726f6c3a2073656e646572206d75737420626520616e2061646d696e20746f206772616e7445524332303a206275726e20616d6f756e7420657863656564732062616c616e63654368696c69546f6b656e3a20746f6b656e207472616e73666572207768696c65207061757365644368696c6c69544f6b656e3a3a7065726d69743a207369676e617475726520657870697265644368696c69546f6b656e3a3a7065726d69743a20696e76616c6964207369676e61747572654d6574615472616e73616374696f6e2875696e74323536206e6f6e63652c616464726573732066726f6d2c62797465732066756e6374696f6e5369676e61747572652945524332303a20617070726f766520746f20746865207a65726f206164647265737353656e64657220646f6573206e6f7420686176652072657175697265642070726976696c65676573212145524332303a207472616e7366657220616d6f756e7420657863656564732062616c616e6365416363657373436f6e74726f6c3a2073656e646572206d75737420626520616e2061646d696e20746f207265766f6b654e61746976654d6574615472616e73616374696f6e3a20494e56414c49445f5349474e455245524332303a207472616e7366657220616d6f756e74206578636565647320616c6c6f77616e63655369676e657220616e64207369676e617475726520646f206e6f74206d6174636845524332303a206275726e2066726f6d20746865207a65726f206164647265737345524332303a207472616e736665722066726f6d20746865207a65726f206164647265737345524332303a20617070726f76652066726f6d20746865207a65726f206164647265737345524332303a2064656372656173656420616c6c6f77616e63652062656c6f77207a65726f416363657373436f6e74726f6c3a2063616e206f6e6c792072656e6f756e636520726f6c657320666f722073656c66a2646970667358221220ceabb30d693c4ce2bbfb9fa49c18c22611e11f2e369806a2bfd9ef5af0a7c51864736f6c634300070500334368696c69546f6b656e3a20746f6b656e207472616e73666572207768696c6520706175736564454950373132446f6d61696e28737472696e67206e616d652c737472696e672076657273696f6e2c6164647265737320766572696679696e67436f6e74726163742c627974657333322073616c7429",
  "immutableReferences": {},
  "source": "pragma solidity 0.7.5;\n\nimport \"openzeppelin-solidity/contracts/token/ERC20/ERC20.sol\";\nimport \"openzeppelin-solidity/contracts/access/AccessControl.sol\";\nimport \"openzeppelin-solidity/contracts/utils/Pausable.sol\";\nimport \"./IChildToken.sol\";\nimport \"./NativeMetaTransaction.sol\";\n\n\ncontract ChilliToken is\n    ERC20,\n    IChildToken,\n    AccessControl,\n    NativeMetaTransaction,\n    Pausable\n{\n    bytes32 public constant DEPOSITOR_ROLE = keccak256(\"DEPOSITOR_ROLE\");\n    bytes32 public constant PERMIT_TYPEHASH = keccak256(\n        \"Permit(address owner,address spender,uint256 value,uint256 nonce,uint256 deadline)\"\n    );\n\n    modifier only(bytes32 role) {\n        require(\n            hasRole(role, _msgSender()),\n            \"Sender does not have required privileges!!\"\n        );\n        _;\n    }\n\n    constructor(\n        string memory name_,\n        string memory symbol_,\n        address childChainManager,\n        uint256 amount\n    ) public ERC20(name_, symbol_) NativeMetaTransaction(name_) {\n\n        _setupRole(DEFAULT_ADMIN_ROLE, _msgSender());\n        _setupRole(DEPOSITOR_ROLE, childChainManager);\n        _mint(_msgSender(), amount);\n    }\n\n    /**\n     * @dev Triggers an approval from owner to spender\n     * @param owner The address to approve from\n     * @param spender The address to be approved\n     * @param amount The number of tokens that are approved (2^256-1 means infinite)\n     * @param deadline The time at which to expire the signature\n     * @param v The recovery byte of the signature\n     * @param r Half of the ECDSA signature pair\n     * @param s Half of the ECDSA signature pair\n     */\n    function permit(\n        address owner,\n        address spender,\n        uint256 amount,\n        uint256 deadline,\n        uint8 v,\n        bytes32 r,\n        bytes32 s\n    )\n        external\n    {\n\n        bytes32 structHash = keccak256(\n            abi.encode(PERMIT_TYPEHASH, owner, spender, amount, nonces[owner]++, deadline)\n        );\n        bytes32 digest = keccak256(\n            abi.encodePacked(\"\\x19\\x01\", domainSeperator, structHash)\n        );\n        address signatory = ecrecover(digest, v, r, s);\n        require(\n            signatory != address(0),\n            \"ChiliToken::permit: invalid signature\"\n        );\n        require(\n            signatory == owner,\n            \"ChilliTOken::permit: unauthorized\"\n        );\n        require(\n            block.timestamp <= deadline,\n            \"ChilliTOken::permit: signature expired\"\n        );\n\n        _approve(owner, spender, amount);\n    }\n\n    /**\n     * @notice called when token is deposited on root chain\n     * @dev Should be callable only by ChildChainManager\n     * Should handle deposit by minting the required amount for user\n     * Make sure minting is done only by this function\n     * @param user user address for whom deposit is being done\n     * @param depositData abi encoded amount\n     */\n    function deposit(address user, bytes calldata depositData)\n        external\n        override\n        only(DEPOSITOR_ROLE)\n    {\n        uint256 amount = abi.decode(depositData, (uint256));\n        _mint(user, amount);\n    }\n\n    /**\n     * @notice called when user wants to withdraw tokens back to root chain. Only DAO can call this method\n     * User will have to submit the request to the DAO and then DAO will have to approve it\n     * @dev Should burn user's tokens. This transaction will be verified when exiting on root chain\n     * @dev user Account from which tokens will be burned\n     * @param amount amount of tokens to withdraw\n     */\n    function withdraw(\n        address user,\n        uint256 amount\n    )\n        external\n        only(DEFAULT_ADMIN_ROLE)\n    {\n        _burn(user, amount);\n    }\n\n    function pause() external only(DEFAULT_ADMIN_ROLE) {\n        _pause();\n    }\n\n    function unpause() external only(DEFAULT_ADMIN_ROLE) {\n        _unpause();\n    }\n\n    function mint(\n        address user,\n        uint256 amount\n    )\n        external\n        only(DEFAULT_ADMIN_ROLE)\n    {\n        _mint(user, amount);\n    }\n\n    function _beforeTokenTransfer(\n        address from,\n        address to,\n        uint256 amount\n    )\n        internal\n        override\n    {\n        super._beforeTokenTransfer(from, to, amount);\n\n        require(!paused(), \"ChiliToken: token transfer while paused\");\n    }\n\n    function _msgSender()\n     internal view override returns (address payable sender) {\n        if (msg.sender == address(this)) {\n            bytes memory array = msg.data;\n            uint256 index = msg.data.length;\n            assembly {\n                // Load the 32 bytes word from memory with the address on the lower 20 bytes, and mask those.\n                sender := and(\n                    mload(add(array, index)),\n                    0xffffffffffffffffffffffffffffffffffffffff\n                )\n            }\n        } else {\n            sender = msg.sender;\n        }\n        return sender;\n    }\n}",
  "sourcePath": "/home/sameep/freelancing-projects/CHILI/contracts/ChilliToken.sol",
  "compiler": {
    "name": "solc",
    "version": "0.7.5+commit.eb77ed08.Emscripten.clang"
  },
  "schemaVersion": "3.3.2",
  "updatedAt": "2021-02-11T13:49:55.929Z",
  "devdoc": {
    "kind": "dev",
    "methods": {
      "allowance(address,address)": {
        "details": "See {IERC20-allowance}."
      },
      "approve(address,uint256)": {
        "details": "See {IERC20-approve}. Requirements: - `spender` cannot be the zero address."
      },
      "balanceOf(address)": {
        "details": "See {IERC20-balanceOf}."
      },
      "decimals()": {
        "details": "Returns the number of decimals used to get its user representation. For example, if `decimals` equals `2`, a balance of `505` tokens should be displayed to a user as `5,05` (`505 / 10 ** 2`). Tokens usually opt for a value of 18, imitating the relationship between Ether and Wei. This is the value {ERC20} uses, unless {_setupDecimals} is called. NOTE: This information is only used for _display_ purposes: it in no way affects any of the arithmetic of the contract, including {IERC20-balanceOf} and {IERC20-transfer}."
      },
      "decreaseAllowance(address,uint256)": {
        "details": "Atomically decreases the allowance granted to `spender` by the caller. This is an alternative to {approve} that can be used as a mitigation for problems described in {IERC20-approve}. Emits an {Approval} event indicating the updated allowance. Requirements: - `spender` cannot be the zero address. - `spender` must have allowance for the caller of at least `subtractedValue`."
      },
      "deposit(address,bytes)": {
        "details": "Should be callable only by ChildChainManager Should handle deposit by minting the required amount for user Make sure minting is done only by this function",
        "params": {
          "depositData": "abi encoded amount",
          "user": "user address for whom deposit is being done"
        }
      },
      "getRoleAdmin(bytes32)": {
        "details": "Returns the admin role that controls `role`. See {grantRole} and {revokeRole}. To change a role's admin, use {_setRoleAdmin}."
      },
      "getRoleMember(bytes32,uint256)": {
        "details": "Returns one of the accounts that have `role`. `index` must be a value between 0 and {getRoleMemberCount}, non-inclusive. Role bearers are not sorted in any particular way, and their ordering may change at any point. WARNING: When using {getRoleMember} and {getRoleMemberCount}, make sure you perform all queries on the same block. See the following https://forum.openzeppelin.com/t/iterating-over-elements-on-enumerableset-in-openzeppelin-contracts/2296[forum post] for more information."
      },
      "getRoleMemberCount(bytes32)": {
        "details": "Returns the number of accounts that have `role`. Can be used together with {getRoleMember} to enumerate all bearers of a role."
      },
      "grantRole(bytes32,address)": {
        "details": "Grants `role` to `account`. If `account` had not been already granted `role`, emits a {RoleGranted} event. Requirements: - the caller must have ``role``'s admin role."
      },
      "hasRole(bytes32,address)": {
        "details": "Returns `true` if `account` has been granted `role`."
      },
      "increaseAllowance(address,uint256)": {
        "details": "Atomically increases the allowance granted to `spender` by the caller. This is an alternative to {approve} that can be used as a mitigation for problems described in {IERC20-approve}. Emits an {Approval} event indicating the updated allowance. Requirements: - `spender` cannot be the zero address."
      },
      "name()": {
        "details": "Returns the name of the token."
      },
      "paused()": {
        "details": "Returns true if the contract is paused, and false otherwise."
      },
      "permit(address,address,uint256,uint256,uint8,bytes32,bytes32)": {
        "details": "Triggers an approval from owner to spender",
        "params": {
          "amount": "The number of tokens that are approved (2^256-1 means infinite)",
          "deadline": "The time at which to expire the signature",
          "owner": "The address to approve from",
          "r": "Half of the ECDSA signature pair",
          "s": "Half of the ECDSA signature pair",
          "spender": "The address to be approved",
          "v": "The recovery byte of the signature"
        }
      },
      "renounceRole(bytes32,address)": {
        "details": "Revokes `role` from the calling account. Roles are often managed via {grantRole} and {revokeRole}: this function's purpose is to provide a mechanism for accounts to lose their privileges if they are compromised (such as when a trusted device is misplaced). If the calling account had been granted `role`, emits a {RoleRevoked} event. Requirements: - the caller must be `account`."
      },
      "revokeRole(bytes32,address)": {
        "details": "Revokes `role` from `account`. If `account` had been granted `role`, emits a {RoleRevoked} event. Requirements: - the caller must have ``role``'s admin role."
      },
      "symbol()": {
        "details": "Returns the symbol of the token, usually a shorter version of the name."
      },
      "totalSupply()": {
        "details": "See {IERC20-totalSupply}."
      },
      "transfer(address,uint256)": {
        "details": "See {IERC20-transfer}. Requirements: - `recipient` cannot be the zero address. - the caller must have a balance of at least `amount`."
      },
      "transferFrom(address,address,uint256)": {
        "details": "See {IERC20-transferFrom}. Emits an {Approval} event indicating the updated allowance. This is not required by the EIP. See the note at the beginning of {ERC20}. Requirements: - `sender` and `recipient` cannot be the zero address. - `sender` must have a balance of at least `amount`. - the caller must have allowance for ``sender``'s tokens of at least `amount`."
      },
      "withdraw(address,uint256)": {
        "details": "Should burn user's tokens. This transaction will be verified when exiting on root chainuser Account from which tokens will be burned",
        "params": {
          "amount": "amount of tokens to withdraw"
        }
      }
    },
    "version": 1
  },
  "userdoc": {
    "kind": "user",
    "methods": {
      "deposit(address,bytes)": {
        "notice": "called when token is deposited on root chain"
      },
      "withdraw(address,uint256)": {
        "notice": "called when user wants to withdraw tokens back to root chain. Only DAO can call this method User will have to submit the request to the DAO and then DAO will have to approve it"
      }
    },
    "version": 1
  }
}