{
  "contractName": "Distributor",
  "abi": [
    {
      "anonymous": false,
      "inputs": [
        {
          "indexed": false,
          "internalType": "address[]",
          "name": "receivers",
          "type": "address[]"
        },
        {
          "indexed": false,
          "internalType": "uint256[]",
          "name": "amounts",
          "type": "uint256[]"
        }
      ],
      "name": "Distributed",
      "type": "event"
    },
    {
      "inputs": [
        {
          "internalType": "address",
          "name": "token",
          "type": "address"
        },
        {
          "internalType": "address[]",
          "name": "receivers",
          "type": "address[]"
        },
        {
          "internalType": "uint256[]",
          "name": "amounts",
          "type": "uint256[]"
        }
      ],
      "name": "distribute",
      "outputs": [],
      "stateMutability": "nonpayable",
      "type": "function"
    }
  ],
  "bytecode": "0x608060405234801561001057600080fd5b506105ff806100206000396000f3fe608060405234801561001057600080fd5b506004361061002b5760003560e01c806315270ace14610030575b600080fd5b6101026004803603606081101561004657600080fd5b6001600160a01b03823516919081019060408101602082013564010000000081111561007157600080fd5b82018360208201111561008357600080fd5b803590602001918460208302840111640100000000831117156100a557600080fd5b9193909290916020810190356401000000008111156100c357600080fd5b8201836020820111156100d557600080fd5b803590602001918460208302840111640100000000831117156100f757600080fd5b509092509050610104565b005b828114610149576040805162461bcd60e51b815260206004820152600e60248201526d496e76616c69642064617461212160901b604482015290519081900360640190fd5b60005b838110156101a9576101a13386868481811061016457fe5b905060200201356001600160a01b031685858581811061018057fe5b90506020020135896001600160a01b0316610244909392919063ffffffff16565b60010161014c565b507f5616de35fa75f8c8aa514a227938e224bb30f9af798daf55449c8fdfa928d637848484846040518080602001806020018381038352878782818152602001925060200280828437600083820152601f01601f19169091018481038352858152602090810191508690860280828437600083820152604051601f909101601f19169092018290039850909650505050505050a15050505050565b604080516001600160a01b0380861660248301528416604482015260648082018490528251808303909101815260849091019091526020810180516001600160e01b03166323b872dd60e01b17905261029e9085906102a4565b50505050565b60606102f9826040518060400160405280602081526020017f5361666545524332303a206c6f772d6c6576656c2063616c6c206661696c6564815250856001600160a01b031661035a9092919063ffffffff16565b8051909150156103555780806020019051602081101561031857600080fd5b50516103555760405162461bcd60e51b815260040180806020018281038252602a8152602001806105a0602a913960400191505060405180910390fd5b505050565b60606103698484600085610373565b90505b9392505050565b6060824710156103b45760405162461bcd60e51b815260040180806020018281038252602681526020018061057a6026913960400191505060405180910390fd5b6103bd856104cf565b61040e576040805162461bcd60e51b815260206004820152601d60248201527f416464726573733a2063616c6c20746f206e6f6e2d636f6e7472616374000000604482015290519081900360640190fd5b60006060866001600160a01b031685876040518082805190602001908083835b6020831061044d5780518252601f19909201916020918201910161042e565b6001836020036101000a03801982511681845116808217855250505050505090500191505060006040518083038185875af1925050503d80600081146104af576040519150601f19603f3d011682016040523d82523d6000602084013e6104b4565b606091505b50915091506104c48282866104d5565b979650505050505050565b3b151590565b606083156104e457508161036c565b8251156104f45782518084602001fd5b8160405162461bcd60e51b81526004018080602001828103825283818151815260200191508051906020019080838360005b8381101561053e578181015183820152602001610526565b50505050905090810190601f16801561056b5780820380516001836020036101000a031916815260200191505b509250505060405180910390fdfe416464726573733a20696e73756666696369656e742062616c616e636520666f722063616c6c5361666545524332303a204552433230206f7065726174696f6e20646964206e6f742073756363656564a26469706673582212206124edd32ade5479f9325ef46ad4059d9d4d6e23f0a0247739df06031721a88064736f6c63430007050033",
  "immutableReferences": {},
  "source": "pragma solidity 0.7.5;\n\nimport \"openzeppelin-solidity/contracts/token/ERC20/IERC20.sol\";\nimport \"openzeppelin-solidity/contracts/token/ERC20/SafeERC20.sol\";\n\n\ncontract Distributor {\n    using SafeERC20 for IERC20;\n\n    event Distributed(address[] receivers, uint256[] amounts);\n\n    function distribute(\n        address token,\n        address[] calldata receivers,\n        uint256[] calldata amounts\n    )\n        external\n    {\n        require(receivers.length == amounts.length, \"Invalid data!!\");\n        for (uint256 i = 0; i < receivers.length; i++) {\n            IERC20(token).safeTransferFrom(\n                msg.sender,\n                receivers[i],\n                amounts[i]\n            );\n        }\n\n        emit Distributed(receivers, amounts);\n    }\n}\n",
  "sourcePath": "/home/sameep/freelancing-projects/CHILI/contracts/Distributor.sol",
  "compiler": {
    "name": "solc",
    "version": "0.7.5+commit.eb77ed08.Emscripten.clang"
  },
  "schemaVersion": "3.3.2",
  "updatedAt": "2021-02-11T13:24:28.071Z",
  "devdoc": {
    "kind": "dev",
    "methods": {},
    "version": 1
  },
  "userdoc": {
    "kind": "user",
    "methods": {},
    "version": 1
  }
}